{
  "_format": "hh-sol-artifact-1",
  "contractName": "NFTMarketplace",
  "sourceName": "contracts/NFTMarketplace.sol",
  "abi": [
    {
      "anonymous": false,
      "inputs": [
        {
          "indexed": false,
          "internalType": "address",
          "name": "nftAddress",
          "type": "address"
        },
        {
          "indexed": false,
          "internalType": "uint256",
          "name": "tokenId",
          "type": "uint256"
        },
        {
          "indexed": false,
          "internalType": "address",
          "name": "seller",
          "type": "address"
        }
      ],
      "name": "ListingCanceled",
      "type": "event"
    },
    {
      "anonymous": false,
      "inputs": [
        {
          "indexed": false,
          "internalType": "address",
          "name": "nftAddress",
          "type": "address"
        },
        {
          "indexed": false,
          "internalType": "uint256",
          "name": "tokenId",
          "type": "uint256"
        },
        {
          "indexed": false,
          "internalType": "uint256",
          "name": "price",
          "type": "uint256"
        },
        {
          "indexed": false,
          "internalType": "address",
          "name": "seller",
          "type": "address"
        }
      ],
      "name": "ListingCreated",
      "type": "event"
    },
    {
      "anonymous": false,
      "inputs": [
        {
          "indexed": false,
          "internalType": "address",
          "name": "nftAddress",
          "type": "address"
        },
        {
          "indexed": false,
          "internalType": "uint256",
          "name": "tokenId",
          "type": "uint256"
        },
        {
          "indexed": false,
          "internalType": "address",
          "name": "seller",
          "type": "address"
        },
        {
          "indexed": false,
          "internalType": "address",
          "name": "buyer",
          "type": "address"
        }
      ],
      "name": "ListingPurchased",
      "type": "event"
    },
    {
      "anonymous": false,
      "inputs": [
        {
          "indexed": false,
          "internalType": "address",
          "name": "nftAddress",
          "type": "address"
        },
        {
          "indexed": false,
          "internalType": "uint256",
          "name": "tokenId",
          "type": "uint256"
        },
        {
          "indexed": false,
          "internalType": "uint256",
          "name": "newPrice",
          "type": "uint256"
        },
        {
          "indexed": false,
          "internalType": "address",
          "name": "seller",
          "type": "address"
        }
      ],
      "name": "ListingUpdated",
      "type": "event"
    },
    {
      "inputs": [
        {
          "internalType": "address",
          "name": "nftAddress",
          "type": "address"
        },
        {
          "internalType": "uint256",
          "name": "tokenId",
          "type": "uint256"
        }
      ],
      "name": "cancelListing",
      "outputs": [],
      "stateMutability": "nonpayable",
      "type": "function"
    },
    {
      "inputs": [
        {
          "internalType": "address",
          "name": "nftAddress",
          "type": "address"
        },
        {
          "internalType": "uint256",
          "name": "tokenId",
          "type": "uint256"
        },
        {
          "internalType": "uint256",
          "name": "price",
          "type": "uint256"
        }
      ],
      "name": "createListing",
      "outputs": [],
      "stateMutability": "nonpayable",
      "type": "function"
    },
    {
      "inputs": [
        {
          "internalType": "address",
          "name": "",
          "type": "address"
        },
        {
          "internalType": "uint256",
          "name": "",
          "type": "uint256"
        }
      ],
      "name": "listings",
      "outputs": [
        {
          "internalType": "uint256",
          "name": "price",
          "type": "uint256"
        },
        {
          "internalType": "address",
          "name": "seller",
          "type": "address"
        }
      ],
      "stateMutability": "view",
      "type": "function"
    },
    {
      "inputs": [
        {
          "internalType": "address",
          "name": "nftAddress",
          "type": "address"
        },
        {
          "internalType": "uint256",
          "name": "tokenId",
          "type": "uint256"
        }
      ],
      "name": "purchaseListing",
      "outputs": [],
      "stateMutability": "payable",
      "type": "function"
    },
    {
      "inputs": [
        {
          "internalType": "address",
          "name": "nftAddress",
          "type": "address"
        },
        {
          "internalType": "uint256",
          "name": "tokenId",
          "type": "uint256"
        },
        {
          "internalType": "uint256",
          "name": "newPrice",
          "type": "uint256"
        }
      ],
      "name": "updateListing",
      "outputs": [],
      "stateMutability": "nonpayable",
      "type": "function"
    }
  ],
  "bytecode": "0x608060405234801561001057600080fd5b50610b25806100206000396000f3fe6080604052600436106100495760003560e01c806207df301461004e57806324780c56146100b4578063a7fc91b9146100d6578063b2ddee06146100e9578063f772adf114610109575b600080fd5b34801561005a57600080fd5b506100936100693660046109fd565b6000602081815292815260408082209093529081522080546001909101546001600160a01b031682565b604080519283526001600160a01b0390911660208301520160405180910390f35b3480156100c057600080fd5b506100d46100cf366004610a29565b610129565b005b6100d46100e43660046109fd565b61047d565b3480156100f557600080fd5b506100d46101043660046109fd565b6106e3565b34801561011557600080fd5b506100d4610124366004610a29565b610839565b6001600160a01b03831660009081526020818152604080832085845290915290205483908390156101985760405162461bcd60e51b8152602060048201526014602482015273135492d50e88105b1c9958591e481b1a5cdd195960621b60448201526064015b60405180910390fd5b6040516331a9108f60e11b8152600481018590528590859033906001600160a01b03841690636352211e9060240160206040518083038186803b1580156101de57600080fd5b505afa1580156101f2573d6000803e3d6000fd5b505050506040513d601f19601f8201168201806040525081019061021691906109d9565b6001600160a01b03161461023c5760405162461bcd60e51b815260040161018f90610aaa565b600085116102865760405162461bcd60e51b815260206004820152601760248201527604d524b543a205072696365206d757374206265203e203604c1b604482015260640161018f565b60405163e985e9c560e01b815233600482015230602482015287906001600160a01b0382169063e985e9c59060440160206040518083038186803b1580156102cd57600080fd5b505afa1580156102e1573d6000803e3d6000fd5b505050506040513d601f19601f820116820180604052508101906103059190610a5e565b80610390575060405163020604bf60e21b81526004810188905230906001600160a01b0383169063081812fc9060240160206040518083038186803b15801561034d57600080fd5b505afa158015610361573d6000803e3d6000fd5b505050506040513d601f19601f8201168201806040525081019061038591906109d9565b6001600160a01b0316145b6103dc5760405162461bcd60e51b815260206004820152601960248201527f4d524b543a204e6f20617070726f76616c20666f72204e465400000000000000604482015260640161018f565b6040805180820182528781523360208083018281526001600160a01b038d811660008181528085528781208f82528552879020955186559151600190950180546001600160a01b0319169590911694909417909355835192835282018a9052818301899052606082015290517fdc801191e0c92935648f61c8e3d0cd8eac1d060269ddb920487d02ab0be69e7d916080908290030190a15050505050505050565b6001600160a01b038216600090815260208181526040808320848452909152902054829082906104bf5760405162461bcd60e51b815260040161018f90610a80565b6001600160a01b03808516600090815260208181526040808320878452825291829020825180840190935280548084526001909101549093169082015290341461054b5760405162461bcd60e51b815260206004820152601c60248201527f4d524b543a20496e636f72726563742045544820737570706c69656400000000604482015260640161018f565b6001600160a01b038581166000818152602081815260408083208984528252808320928355600190920180546001600160a01b03191690558401519051632142170760e11b81529216600483015233602483015260448201869052906342842e0e90606401600060405180830381600087803b1580156105ca57600080fd5b505af11580156105de573d6000803e3d6000fd5b50505050600081602001516001600160a01b03163460405160006040518083038185875af1925050503d8060008114610633576040519150601f19603f3d011682016040523d82523d6000602084013e610638565b606091505b50509050806106825760405162461bcd60e51b815260206004820152601660248201527508cc2d2d8cac840e8de40e8e4c2dce6cccae440cae8d60531b604482015260640161018f565b602080830151604080516001600160a01b03808b16825293810189905292909116908201523360608201527fab7369fca6913c40e2bf7144b586a1a0e894bd32f5f9e74128cd89fb54f7bf94906080015b60405180910390a1505050505050565b6001600160a01b038216600090815260208181526040808320848452909152902054829082906107255760405162461bcd60e51b815260040161018f90610a80565b6040516331a9108f60e11b8152600481018490528490849033906001600160a01b03841690636352211e9060240160206040518083038186803b15801561076b57600080fd5b505afa15801561077f573d6000803e3d6000fd5b505050506040513d601f19601f820116820180604052508101906107a391906109d9565b6001600160a01b0316146107c95760405162461bcd60e51b815260040161018f90610aaa565b6001600160a01b0386166000818152602081815260408083208984528252808320928355600190920180546001600160a01b03191690558151928352820187905233908201527fcf45896873f759e6a8c2348e49ff9892b89458850ab6c70339e1c430227ce91d906060016106d3565b6001600160a01b0383166000908152602081815260408083208584529091529020548390839061087b5760405162461bcd60e51b815260040161018f90610a80565b6040516331a9108f60e11b8152600481018590528590859033906001600160a01b03841690636352211e9060240160206040518083038186803b1580156108c157600080fd5b505afa1580156108d5573d6000803e3d6000fd5b505050506040513d601f19601f820116820180604052508101906108f991906109d9565b6001600160a01b03161461091f5760405162461bcd60e51b815260040161018f90610aaa565b600085116109695760405162461bcd60e51b815260206004820152601760248201527604d524b543a205072696365206d757374206265203e203604c1b604482015260640161018f565b6001600160a01b0387166000818152602081815260408083208a84528252918290208890558151928352820188905281018690523360608201527f3199bfdff711ec1ab8ab8449dc3b8d3fa30a59861a734a9d26f7b1a38162df759060800160405180910390a150505050505050565b6000602082840312156109eb57600080fd5b81516109f681610ad7565b9392505050565b60008060408385031215610a1057600080fd5b8235610a1b81610ad7565b946020939093013593505050565b600080600060608486031215610a3e57600080fd5b8335610a4981610ad7565b95602085013595506040909401359392505050565b600060208284031215610a7057600080fd5b815180151581146109f657600080fd5b60208082526010908201526f135492d50e88139bdd081b1a5cdd195960821b604082015260600190565b60208082526013908201527226a925aa1d102737ba103a34329037bbb732b960691b604082015260600190565b6001600160a01b0381168114610aec57600080fd5b5056fea2646970667358221220d7324f1042a7cf8d1bbc4a2e77a247be6a09f6bd9d2608148d6610adaedefb6d64736f6c63430008070033",
  "linkReferences": {},
  "deployedLinkReferences": {}
}